:10000000F9C0000018C1000016C1000014C10000B2
:1000100012C1000010C100000EC100000CC10000A0
:100020000AC1000008C1000006C1000004C10000B0
:1000300002C1000000C10000FEC00000FCC00000C2
:10004000FAC000000C9489150C94B6150C94E315B5
:100050000C945C15F0C00000EEC00000ECC0000085
:10006000EAC00000E8C00000E6C00000E4C00000F4
:10007000E2C00000E0C00000DEC00000DCC0000004
:100080000C943D160C946A160C9497160C9410164A
:10009000D2C00000D0C00000CEC00000CCC0000024
:1000A000CAC00000C8C000000C94F1160C941E17C2
:1000B0000C944B170C94C416BEC000000C94A517EA
:1000C0000C94D2170C94FF170C947817B4C000004E
:1000D000B2C00000B0C00000AEC00000ACC0000064
:1000E000AAC000000C946B0F0C94750F0C94610F58
:1000F0000C94E00E0C940B0F0C947F0F0C94B50E27
:100100000C94360F98C0000096C0000094C0000008
:1001100092C0000090C000000C94930F0C94890FC3
:100120000C949D0F0C94A70F0C94B10F0C94BB0F63
:100130000C94C50F380C5F0C530C6C0C530C2B0C2F
:10014000450C530C530C530C530C530CFF0B530C1A
:10015000530C530C530C530C530C8B0C530C530C6F
:10016000C40C07634236B79BD8A71A39685618AE35
:10017000BAAB558C1D3CB7CC5763BD6DEDFD753EDC
:10018000F6177231BF000000803F08000000BE92E9
:100190002449123EABAAAA2ABECDCCCC4C3E0000CC
:1001A0000080BEABAAAAAA3E00000000BF0000006B
:1001B000803F0000000000084178D3BB4387D11383
:1001C0003D190E3CC3BD4282AD2B3E68EC8276BE2B
:1001D000D98FE1A93E4C80EFFFBE01C4FF7F3F00F5
:1001E0000000000004030302020100FFFEFDFCFB0F
:1001F000F9F7F4EF11241FBECFEFD1E8DEBFCDBF7A
:1002000000E00CBF12E0A0E0B2E0E6EBFBE300E0B0
:100210000BBF02C007900D92A430B107D9F725E0BB
:10022000A4E0B2E001C01D92A73AB207E1F70E9434
:100230005A190C94D91DE4CE0E940415209108028D
:100240002223D9F04091A60530E020910802642FC6
:10025000732F0E94D71CFB018FEF9FEF642F732F2A
:100260000E94D71C30E0629FC001639F900D729F77
:10027000900D11248E0F9F1F08956091A60570E0C8
:100280000E94D71CCB0108950E9409150E942D15CC
:1002900010920402109205021092060210920702B8
:1002A00010920A02109209020C943A150E94171536
:1002B000109208020895E8DFF9DF0C941E150F93E1
:1002C0001F93CF93DF93EC010E9404158C01BE01B4
:1002D00080E090E02091A60530E040E050E00E94F0
:1002E000C81CDC01CB01A80160E070E0480F591F79
:1002F0006A1F7B1F4093040250930502609306021D
:100300007093070240910402509105026091060229
:1003100070910702AB016627772740930402509340
:100320000502609306027093070240910402509107
:1003300005026091060270910702411551056105A1
:10034000710591F0409104025091050260910602FE
:10035000709107020196080F191F10930A0200936B
:1003600009020E94091508C0080F191F10930A02FC
:10037000009309020E9410158091090290910A02CF
:100380008436910530F48C599F4F90930A028093E4
:1003900009028091090290910A020E942215DF91C0
:1003A000CF911F910F910895109208020E943C1561
:1003B0008093A60508958091040290910502A09172
:1003C0000602B09107020097A105B105C9F080911E
:1003D000040290910502A0910602B09107020197D4
:1003E000A109B1098093040290930502A09306022B
:1003F000B09307020097A105B10511F40E941015F2
:10040000809108028F5F809308029091A60589175A
:1004100048F010920802E0910B02F0910C02309724
:1004200009F0199508950E940915E0910D02F091C7
:100430000E02309709F01995089590930C0280935D
:100440000B02089590930E0280930D02089581E0AF
:1004500090E09093240280932302089504C0615099
:100460007109810991096115710581059105B9F736
:100470000895CF93DF93EC0185E994E021E7FC0137
:1004800011922A95E9F7EF81F88521E7DC010190C7
:100490000D922A95E1F7FC018681978120911B0539
:1004A00030911C058217930739F510921C021092A7
:1004B0001B02EFE9F4E021ED34E090E060E070E051
:1004C00046EF5FEF45595440A1E081918E3F21F402
:1004D000BA016E0F7F1F9A2FE217F307B1F7992326
:1004E00021F070931C0260931B0281E090E09093D6
:1004F0001802809317028CC0019609F089C080E42D
:1005000089B940919D0450919E04EEE1F5E02AE303
:1005100035E060E070E0B1E0A0E082819381841773
:10052000950711F46B2F7A2F3496E217F307A9F78A
:10053000672B41F5EF81F88580818E5FE80FF11D13
:10054000208184E08CB980911D0290911E02FC01F3
:10055000EE0FFF1FEE0FFF1FE25EFA4F30E0318318
:10056000208320919D0430919E0433832283019641
:1005700090931E0280931D0281E090E090931402FC
:1005800080931302E5E9F4E0828590E0982F8827B4
:100590002385820F911D20913E0530913F058217E2
:1005A000930759F4848590E0982F88272585820F3A
:1005B000911D90933D0580933C053091A30460917B
:1005C000190270911A0277239CF0E7E0F5E080E0D1
:1005D00090E040E050E0B1E0A0E02191321302C091
:1005E0004B2F5A2F019668177907BCF7452B81F4DA
:1005F000FB01E95FFA4F308382E090E090931802AC
:10060000809317026F5F7F4F70931A0260931902F5
:1006100062E070E080E090E021DF89819A81C6D7B6
:10062000DF91CF91089508959B0121503109121651
:10063000130684F4FC01E60FF71FDC0180E090E074
:100640004C9152915D93408301962150310982175C
:100650009307B4F30895CF92DF92EF92FF920F9336
:100660001F93CF93DF936B018A01009799F0EB0101
:10067000E0E0F0E00F2EFAE0EF2EF12CF02D3196B5
:10068000B7010E94EB1C805D8993862F972F0097FE
:10069000B1F702C0E0E0F0E0E017F1075CF4EC0D28
:1006A000FD1D9601200F311F80E38193E217F307B0
:1006B000E1F701C08F01B801C601B6DFE601C00F46
:1006C000D11F1882C801DF91CF911F910F91FF9028
:1006D000EF90DF90CF9008952F923F924F925F92CC
:1006E0006F927F928F929F92AF92BF92CF92DF9242
:1006F000EF92FF920F931F93CF93DF934B015C0117
:100700008A01E9010E94D9196B017C0140E050E0A7
:10071000B801C601A0DF1C01209791F1F801E80F94
:10072000F91F8EE28083BE010D2E000C880B990B01
:100730000E940C1A9B01AC0160E070E080E291E441
:100740000E94FB1A2B013C01B601DD0C880B990BB2
:100750000E940C1A9B01AC01C501B4010E947419DE
:100760002FEF221A320A020D131DA30192010E94DB
:10077000981A0E94D919DC01CB01AE01B8016BDFD8
:10078000DF91CF911F910F91FF90EF90DF90CF906D
:10079000BF90AF909F908F907F906F905F904F90A1
:1007A0003F902F9008950E946F14BC0180E090E06C
:1007B0000E940A1A2FE632E143E85AE30C94981A91
:1007C0000895CF93DF93CDB7DEB7E2970FB6F894D5
:1007D000DEBF0FBECDBF81E090E090931C058093FB
:1007E0001B056BE175E083E50E94CE1080911B052F
:1007F00090911C0580933E0590933F052091110236
:1008000030911202232B81F422E030E030933B053B
:1008100020933A0530933D0520933C0521E030E0DC
:10082000309312022093110220911302309114028E
:10083000232B31F421E030E03093200220931F027B
:10084000609925C066E174E380E090E007DE809166
:100850001D0290911E029093200280931F0281E05E
:1008600090E090931602809315029DDF24E030E023
:10087000AE014F5F5F4F30DFE0E4F5E089818083B8
:100880008A8181838B8182838C81838358C020916C
:100890001502309116022130310509F050C0109236
:1008A00016021092150299838A83E0E4F5E08081B4
:1008B0008B8381818C8382818D8383818E83609100
:1008C0001F027091200216161706F4F4AEE1B5E08F
:1008D000FE0131969B01220F331F220F331F2E0F73
:1008E0003F1F8C9111969C91119796838783129646
:1008F0008C91129713969C911397908781871496E9
:100900003496E217F30769F7FB01EE0FFF1FEE0FB6
:10091000FF1F81E090E08C0F9D1FE80FF91F8EEF05
:10092000868380913C0590913D0590933B05809393
:100930003A05660F660F695FCE01019628D1809156
:100940001702909118028130910591F480913C0535
:1009500090913D0590933B0580933A0560911B0271
:100960008FE994E014D110921802109217021CC063
:100970000297D1F480911B0590911C05909322025F
:10098000809321023ED081E090E09093100280930A
:100990000F02109218021092170280912302909178
:1009A0002402019701F50CC080912302909124024A
:1009B0000197C9F480910F0290911002019799F468
:1009C00010922402109223021092100210920F0231
:1009D00038D08FEF9FEF90933B0580933A0565E009
:1009E0008FE994E0D4D066E174E380E090E036DDF6
:1009F000E2960FB6F894DEBF0FBECDBFDF91CF9168
:100A00000895EF92FF920F931F93A0912102B0914E
:100A1000220220E432E44FE050E00E941F1DAB01AF
:100A2000BC01E12CF12C0EE115E020E080910605DF
:100A3000A7D21F910F91FF90EF90089508DDE1CFAD
:100A400008958091060506C408954F925F926F92B3
:100A50007F928F92AF92CF92EF920F931F93CF938B
:100A6000DF93CDB7DEB7A9E8B0E0AE19B109FD015B
:100A7000E95DFD4F3F01EE2079F0D80144244A940E
:100A80004E0C512C9FEF491A590A040D151D9D91CA
:100A90009193A017B107D9F7423061F43BE03E0DC6
:100AA000D30140918D0550918E055E934E9340E0A9
:100AB00050E826C0D301189731E13E0DE1E8F5E09A
:100AC00090819C93918111969C931197928112969B
:100AD0009C931297938113969C93139794811496E9
:100AE0009C931497958115969C93159796811696CD
:100AF0009C931697978117969C93179740E050EC1C
:100B0000823059F4FB0180819181FD01929382939F
:100B10003F01CA01806498600FC03D01F8E06F1A80
:100B200071083A5F88E0FB01D30101900D928A952C
:100B3000E1F7CA0180649C604EEF5AECF3013297F2
:100B40005183408331972083C11002C0816001C06E
:100B50008162F301359791838083D30116973C938B
:100B6000B0932F02A0932E02482D6A2D87E292E0C7
:100B70000E947513DF91CF911F910F91EF90CF904D
:100B8000AF908F907F906F905F904F9008958F926D
:100B9000AF92CF92EF920F931F93CF93DF931F9259
:100BA0001F92CDB7DEB720913A0530913B053A83CD
:100BB00029832091250230912602A9014F5F5F4FC2
:100BC0005093260240932502812C6894AA24A1F810
:100BD000C12CE62E8C0142E0BE016F5F7F4F82E0A8
:100BE00034DF0F900F90DF91CF911F910F91EF9015
:100BF000CF90AF908F90089586E00C94A112089545
:100C0000CF93DF9300D000D0CDB7DEB742D034D041
:100C100025D4F9D78111FFCF78941A8219828EEFEB
:100C20009AEC9C838B838CE08D831E82BE016F5F68
:100C30007F4F83E50E94CE10BE016D5F7F4F80E540
:100C40000E94CE10BE016B5F7F4F80E00E94CE10ED
:100C5000BE016A5F7F4F84E00E94CE1062E080E0B8
:100C60000E94B113C9DF26960FB6F894DEBF0FBEFF
:100C7000CDBFDF91CF9108958DB18E7F9EB15E9AE9
:100C8000569AA29A9A9A95609EB984608DB90895F1
:100C90000895CF93DF931F92CDB7DEB78FEF809388
:100CA0006400809365008FB78983F89489815F938E
:100CB00050E85093610050E0509361005F918FBF06
:100CC0000F90DF91CF910895CF93DF931F92CDB70F
:100CD000DEB79FB79983F8949981823040F4E82F6A
:100CE000F0E0EC59FF4F60958081682360839FBFDF
:100CF0000F90DF91CF910895CF93DF931F92CDB7DF
:100D0000DEB79FB79983F8949981823038F4E82F41
:100D1000F0E0EC59FF4F8081682B60839FBF0F90FC
:100D2000DF91CF9108958091B602882319F081E078
:100D30008093780508951F93CF93DF931F92CDB7CB
:100D4000DEB7809144059091450501969093450545
:100D5000809344058FB78983F89419818091B502F7
:100D60008F3FE9F190E0FC01EE0FFF1F9C01220F85
:100D7000331F220F331F220F331FE20FF31FEA5BD3
:100D8000FA4F218521112BC0FC01EE0FFF1F880FA8
:100D9000991F880F991F880F991FE80FF91FEA5BA9
:100DA000FA4F80819181A281B381209144053091D5
:100DB00045052A173B0799F482DA8091B50290E045
:100DC000FC01EE0FFF1F880F991F880F991F880FD6
:100DD000991FE80FF91FEA5BFA4F81E081871FBF77
:100DE0000F90DF91CF911F9108950F931F93CF9391
:100DF000DF93C82F8F3F09F460C000914405109124
:100E000045051ADA40914405509145050417150728
:100E1000A1F7D0E060E070E0FE01EE0FFF1F9E0141
:100E2000220F331F220F331F220F331FE20FF31F36
:100E3000EA5BFA4FBA0155274427A0E0B0E0482BFF
:100E4000592B6A2B7B2B80819181A281B381841BDA
:100E5000950BA60BB70B8F3F2FEF9207A2072FE73B
:100E6000B20738F59E01220F331F220F331F220FC6
:100E7000331FFE01EE0FFF1FE20FF31FEA5BFA4F75
:100E8000218521111BC0009721E0A207B105B0F414
:100E900016DACE01880F991FCC0FDD1FCC0FDD1F96
:100EA000CC0FDD1FC80FD91FCA5BDA4F81E08987DD
:100EB00005C081E08093780501C0E6D9DF91CF912C
:100EC0001F910F91089580917805882309F457C0E8
:100ED000109278058091B602882309F450C0809161
:100EE000B4028F3F59F48091B3028F3F39F480915F
:100EF000B5028093B3028093B40215C02091B5026D
:100F00008091B30290E0FC01EE0FFF1F880F991F44
:100F1000880F991F880F991FE80FF91FEA5BFA4F96
:100F200020872093B3028091B50290E0FC01EE0F80
:100F3000FF1F880F991F880F991F880F991FE80FAF
:100F4000F91FEA5BFA4F80858093B5022091B302C6
:100F500030E0F901EE0FFF1F220F331F220F331F66
:100F6000220F331FE20FF31FEA5BFA4F9FEF9087C8
:100F70009091B60291509093B602911136CF089598
:100F80002F923F924F925F926F927F928F929F9299
:100F9000AF92BF92CF92DF92EF92FF920F931F9387
:100FA000CF93DF93CDB7DEB727970FB6F894DEBFA8
:100FB0000FBECDBF382E4A015B01222EFF82EE828A
:100FC0006894442442F8481608F4FFC0011511053E
:100FD00009F4FDC0C82ED12CF601EE0FFF1FC6018B
:100FE000880F991F880F991F880F991FE80FF91F05
:100FF000EA5BFA4F84819581892B09F0EAC0E09081
:101000004405F090450518D9409144055091450597
:10101000E416F506A1F760E070E0BA015527442711
:101020002C01612C712C4A825B826C827D82442A65
:10103000552A662A772A222021F021E0221691F0F3
:10104000CAC0B501A401405851096109710940386D
:101050005F4F6F4F7F4708F0C0C0840C951CA61CE3
:10106000B71C10C0B501A4014058510961097109AC
:10107000441955096609770940385F4F6F4F7F471C
:1010800008F0ADC08FB78983F894F9801CDFC601E2
:10109000880F991F880F991F880F991FF601EE0F6F
:1010A000FF1FE80FF91FEA5BFA4F80829182A2824C
:1010B000B382158304834E805F80578246821186F7
:1010C000B091B602BF5FB093B602A091B502AF3F38
:1010D00021F0B11107C0EA2E84C03092B502832DF1
:1010E00084DE70C0EA2E4A2F50E04F3F09F466C0FC
:1010F000842F90E0BC01660F771F9C01220F331FE5
:10110000220F331F220F331F260F371FF901EA5B0F
:10111000FA4F4080518062807380950184010419E8
:10112000150926093709280139011FEF4116510613
:1011300061061FE7710670F4FB01880F991F880F85
:10114000991F880F991FE80FF91FEA5BFA4FE42EE9
:10115000408534C0F601EE0FFF1FCC0CDD1CCC0C1B
:10116000DD1CCC0CDD1CEC0DFD1DEA5BFA4F40874D
:10117000FC01EE0FFF1F880F991F880F991F880F22
:10118000991FE80FF91FEA5BFA4F1186A41305C0F7
:101190003092B502832D29DE15C08E2D90E0FC0122
:1011A000EE0FFF1F880F991F880F991F880F991F37
:1011B000E80FF91FEA5BFA4F308604C05F5FB51392
:1011C00094CF0FC0FFBE80E02CC088EF2AC088EF0C
:1011D00028C083EF26C088EF24C088EF22C088EFA4
:1011E00020C08E2D90E0FC01EE0FFF1F880F991F8D
:1011F000880F991F880F991FE80FF91FEA5BFA4FB4
:101200003086F601EE0FFF1FCC0CDD1CCC0CDD1C74
:10121000CC0CDD1CEC0DFD1DEA5BFA4F8FEF8087D7
:10122000D1CF27960FB6F894DEBF0FBECDBFDF91AA
:10123000CF911F910F91FF90EF90DF90CF90BF90D3
:10124000AF909F908F907F906F905F904F903F9066
:101250002F9008950F931F93CF93DF931F92CDB7D5
:10126000DEB7853008F0F1C0082F8FB78983F89476
:10127000198129DE8091B602882309F466C0909115
:10128000B50209134EC021C009134BC0802F90E056
:10129000FC01EE0FFF1F880F991F880F991F880F01
:1012A000991FE80FF91FEA5BFA4F8085FA01EE0FEC
:1012B000FF1F440F551F440F551F440F551FE40FC8
:1012C000F51FEA5BFA4F808715C00E944401802F0A
:1012D00090E0FC01EE0FFF1F880F991F880F991FE8
:1012E000880F991FE80FF91FEA5BFA4F80858093FA
:1012F000B5027BDD802F90E0FC01EE0FFF1F880F11
:10130000991F880F991F880F991FE80FF91FEA5B33
:10131000FA4F8FEF80878091B60281508093B6029A
:1013200078C0492F50E0FA01EE0FFF1F9A01220FFB
:10133000331F220F331F220F331FE20FF31FEA5B0D
:10134000FA4F9085815009F09FCF8091B4028F3F72
:1013500009F475C0081347C025C0091343C0202FE6
:1013600030E0F901EE0FFF1F220F331F220F331F52
:10137000220F331FE20FF31FEA5BFA4F9085FA0149
:10138000EE0FFF1F440F551F440F551F440F551FED
:10139000E40FF51FEA5BFA4F90879091B3020913AF
:1013A00038C01DC08091B302081306C08FEF809330
:1013B000B3028093B4022DC0802F90E0FC01EE0FA9
:1013C000FF1F880F991F880F991F880F991FE80F1B
:1013D000F91FEA5BFA4F80858093B4021AC08093AC
:1013E000B30217C0892F482F50E0FA01EE0FFF1FFC
:1013F0009A01220F331F220F331F220F331FE20FD8
:10140000F31FEA5BFA4F90859F3F09F0A6CF80E07B
:1014100017C0802F90E0FC01EE0FFF1F880F991F6F
:10142000880F991F880F991FE80FF91FEA5BFA4F81
:101430001582148217821682118681E001C080E035
:101440001FBF811104C082EF03C088EF01C080E09C
:101450000F90DF91CF911F910F9108951092B602D6
:101460001092780510924505109244058FEF8093F5
:10147000B5028093B4028093B302E6E4F5E028E776
:1014800035E08087158214823A96E217F307C9F790
:101490001092B2028BE996E00E941D0283E996E069
:1014A0000E9422020C94D40108950F931F93CF93AE
:1014B000DF931F921F92CDB7DEB78FB78A83F89460
:1014C0001A8101DD1FBF1FEF012F37C08FB789833E
:1014D000F89429818091B40290E0DC01AA0FBB1F2F
:1014E000880F991F880F991F880F991FA80FB91F80
:1014F000AA5BBA4F18969C9118971496ED91FC919F
:10150000159716964D915C91179718961C931897FE
:1015100015961C921E92149717961C921E9216975F
:1015200019961C929093B4029F3F11F40093B3025A
:101530002FBF309711F0CA0119958091B4028F3FE7
:1015400029F60F900F90DF91CF911F910F91089581
:1015500080E00895AACF0895CF93DF9387EB92E0C0
:10156000B0D0CCEBD2E088EC92E099838883BE01C6
:1015700087EB92E0ADD083E593E09D838C8360ECB4
:1015800072E087EB92E0A4D08EED93E09987888794
:1015900064EC72E087EB92E09BD0DF91CF910895ED
:1015A00060E070E087EB92E0B8C00895009721F00A
:1015B000BC0187EB92E08CC008958F929F92AF920E
:1015C000BF92CF92DF92EF92FF920F931F93CF9330
:1015D000DF931F92CDB7DEB72FB72983F8948980A8
:1015E000DC0114962C91222309F456C07A01962E20
:1015F0005C01FC0100811181452BE1F00115110511
:1016000009F44DC0680101C08901D70112966D919E
:101610007C911397ED91FC91D8018D919C91199536
:10162000811109C0F801228133816801211531053A
:1016300059F735C068010115110599F1911031C0B4
:10164000D5018D919C9111970817190731F4F80174
:10165000828193818D939C9308C0D80112968D91BD
:101660009C911397F60193838283D50112968D91F5
:101670009C9113970817190721F41396DC92CE92C8
:101680001297F50184818150848380819181892B17
:1016900041F41382128205C000E010E002C000E0B5
:1016A00010E08FBEC8010F90DF91CF911F910F9175
:1016B000FF90EF90DF90CF90BF90AF909F908F9072
:1016C0000895FC01118210821382128214820895FF
:1016D000CF93DF931F92CDB7DEB7FC018FB789831D
:1016E000F89499818481811103C07183608306C05D
:1016F000A281B38113967C936E9312977383628356
:10170000DB0113961C921E92129784818F5F848353
:101710009FBF0F90DF91CF910895AB0160E04DCF57
:10172000089504C06150710981099109611571051D
:1017300081059105B9F708950F931F93CF93809179
:1017400041018F718830A1F481E080934F0189E0DD
:1017500080934201C3E00FE411E0F801808180FD35
:1017600007C063E970E080E090E0DBDFC150A9F7DB
:10177000CF911F910F9108951F93CF93DF931F92E5
:10178000CDB7DEB7182F8091A0058F3051F51F30EF
:1017900009F438C11092A40581EF9FE0E1D28FB720
:1017A0008983F89499817894E9E3F1E080818D7FD1
:1017B00080838091A4058823E1F39FBF8FEF8093FE
:1017C0004F0188E480934E01EDE4F1E08081846074
:1017D0008083183011F0133021F488E08093A00545
:1017E00011C1812F90E0FC013397E731F10508F03A
:1017F0005AC08827E656FF4F8F4F0C94FE1C83E09B
:1018000080934201EDE4F1E080818B7F80830E9430
:10181000841D80936D01EEE6F1E080819770887FF2
:10182000892B80838FEF80934F0180E880934E0156
:1018300062E070E080E090E074DFE9E3F1E0808155
:10184000826080836FE270E080E090E06ADF8FE08A
:101850008093A005D7C08091A005883021F188E051
:101860008093420162E070E080E090E05ADF1BC0AC
:101870008091A0058830B9F083E08093420162E056
:1018800070E080E090E04DDF0EC08091A0058830D0
:1018900049F018F4863039F409C0863139F08931BD
:1018A00011F404C049DFE1E4F1E0A6C089E08093CF
:1018B000420162E070E080E090E033DFF4CF80919D
:1018C000A005883019F0893071F302C035DFEBCF05
:1018D00084E080934201E7CF8091A005893041F0F8
:1018E00018F4883071F0DFCF863111F08931D9F6E4
:1018F00086E08093420162E070E080E090E011DFDA
:10190000D2CF1ADF86E08093420162E070E080E08F
:1019100090E007DFC8CF8091A005883091F018F4DF
:101920008630C9F0C0CF893019F0893109F0BBCFBA
:1019300086E18093420162E070E080E090E0F1DEB9
:10194000B2CFFADE86E18093420162E070E080E08F
:1019500090E0E7DEA8CF89E08093420162E070E08A
:1019600080E090E0DEDE809141018F718093A005E0
:10197000893009F047C086E18093420162E070E05F
:1019800080E090E0CEDE8FCF8091A005883051F1CD
:1019900018F4863079F087CF893019F0863151F00C
:1019A00082CF89E18093420162E070E080E090E0C4
:1019B000B8DE79CF89E08093420162E070E080E098
:1019C00090E0AFDE809141018F718093A005893056
:1019D000C9F489E18093420162E070E080E090E028
:1019E000A0DE61CFA9DE89E18093420162E070E070
:1019F00080E090E096DE57CF80818F718093A005C4
:101A00008F31D1F30F90DF91CF911F910895CF9334
:101A1000DF9380917905882319F18091A5058111C3
:101A20001FC08091690490916A04892B41F48BE86E
:101A3000B7DD90936A0480936904892B89F0109232
:101A40007905CCE4D1E088818F77888363E070E00A
:101A500080E090E066DE88818068888386E18CDEA5
:101A600080917E05882341F060E070E08AE795E090
:101A700054DE009709F025D58091A505823009F440
:101A800087D5DF91CF91089504C061507109810914
:101A900091096115710581059105B9F70895FF92C6
:101AA0000F931F93CF93DF9386E066DE8630E1F7D6
:101AB000E5E5F1E080818F77808310924E01689494
:101AC000FF24F3F8C0E0D0E006E411E0F8019081D3
:101AD000CC0FDD1FCC0FDD1F9076292F30E036951F
:101AE0002795329522952F7023273F702327C22BED
:101AF000D32B62E070E080E090E0C6DFFA94F11052
:101B0000E5CF83E039DE8FEF80934F0188E4809347
:101B10004E01CE010E94871DDF91CF911F910F9141
:101B2000FF900895FF920F931F93CF93DF93F82EAA
:101B3000C9E3D1E088818D7F888361E471E080E032
:101B400090E0A2DF88818E7F888362E070E080E091
:101B500090E09ADF88818160888366E870E080E0A9
:101B600090E092DF809141018F71CAE001E411E0C1
:101B70000AC066E870E080E090E086DFF8018081CE
:101B80008F71C150C9F18830A1F78093A00587DF1C
:101B90000E94841D80936D01EEE6F1E080819770D4
:101BA000887F892B8083808180628083ECE4F1E0F0
:101BB00080818068808388E480934E018FEF8093DA
:101BC0005601EDE4F1E080818C7F82608083AAE49D
:101BD000B1E08C91807F83608C938081886080836A
:101BE000808184608083F11030D27DD21092A5056F
:101BF0001092790580E001C085E8DF91CF911F91B7
:101C00000F91FF900895CF92DF92EF92FF920F9382
:101C10001F93CF93DF9314BE80E1809335018093AF
:101C20003401809333018093320192DC81116DC0C5
:101C300060E481E049D8C9E3D1E08881816088838C
:101C400088818D7F88836BEF71E080E090E01CDFFE
:101C500088818E7F888362E070E080E090E014DF0E
:101C600088818160888366E870E080E090E00CDF26
:101C7000809141018F71CAE001E411E00BC066E878
:101C800070E080E090E000DFF80180818F71C1504A
:101C900009F451C0883099F78093A00580915C01C8
:101CA000843909F048C035C00E94841DF801819331
:101CB0008F01EC15FD05C1F7F701208131814281CB
:101CC00053816481758186819781AFEF0E94251DC4
:101CD000ADEF0E94311D21F018F001E815E0E4CFCE
:101CE0008FEC9FE038D080EE9FE030D081EF9FE016
:101CF00037D032DC8BE854DC90936A04809369041B
:101D00008AE795E0DEDCDAD517C0C5E815C0C5E87E
:101D100013C081E007DFC82F8111F9CF0F2EF1E842
:101D2000EF2EF5E0FF2EF02D0F2EF9E8CF2EF5E087
:101D3000DF2EF02DC1CFC5E88C2FDF91CF911F9101
:101D40000F91FF90EF90DF90CF90089590937204E1
:101D50008093710408959093700480936F040895A4
:101D600090936C0480936B0408951F920F920FB6AA
:101D70000F9211240BB60F922F933F934F935F93C3
:101D80006F937F938F939F93AF93BF93EF93FF9343
:101D9000E0917104F09172041995FF91EF91BF9158
:101DA000AF919F918F917F916F915F914F913F91F3
:101DB0002F910F900BBE0F900FBE0F901F90189594
:101DC0001F920F920FB60F9211240BB60F922F9302
:101DD0003F934F935F936F937F938F939F93AF93B3
:101DE000BF93EF93FF93E0916F04F0917004199506
:101DF000FF91EF91BF91AF919F918F917F916F91E3
:101E00005F914F913F912F910F900BBE0F900FBE9E
:101E10000F901F9018951F920F920FB60F921124DA
:101E20000BB60F922F933F934F935F936F937F93D4
:101E30008F939F93AF93BF93EF93FF93E0916D04C4
:101E4000F0916E041995FF91EF91BF91AF919F9121
:101E50008F917F916F915F914F913F912F910F9053
:101E60000BBE0F900FBE0F901F9018951F920F92F0
:101E70000FB60F9211240BB60F922F933F934F93EF
:101E80005F936F937F938F939F93AF93BF93EF93E2
:101E9000FF93E0916B04F0916C041995FF91EF9121
:101EA000BF91AF919F918F917F916F915F914F9172
:101EB0003F912F910F900BBE0F900FBE0F901F9070
:101EC00018951F920F920FB60F9211240F900FBE0C
:101ED0000F901F9018951F920F920FB60F9211241A
:101EE0000F900FBE0F901F9018951F920F920FB674
:101EF0000F9211240F900FBE0F901F9018951F92F4
:101F00000F920FB60F9211240F900FBE0F901F90DB
:101F100018951F920F920FB60F9211240F900FBEBB
:101F20000F901F9018951F920F920FB60F921124C9
:101F30000F900FBE0F901F9018951F920F920FB623
:101F40000F9211240F900FBE0F901F9018951F92A3
:101F50000F920FB60F9211240F900FBE0F901F908B
:101F600018951F920F920FB60F9211240F900FBE6B
:101F70000F901F9018951F920F920FB60F92112479
:101F80000F900FBE0F901F9018951F920F920FB6D3
:101F90000F9211240F900FBE0F901F9018951F9352
:101FA000CF93DF931F92CDB7DEB78FB78983F894B5
:101FB000198119D21FBF0F90DF91CF911F91089502
:101FC0001F93CF93DF931F92CDB7DEB78FB789836F
:101FD000F8941981A9D31FBF0F90DF91CF911F9162
:101FE000089581E08093A405089585FD03C0982F8E
:101FF0009F7304C0982F91959F719195E4EEF1E045
:102000002491291754F48491803EB4F08032B4F4C2
:102010008823CCF48F71806216C0E3EFF1E0249145
:1020200092178CF48491803E5CF080325CF48823BB
:1020300054F48F71806207C080E205C08FE103C055
:1020400080E201C08FE180680895CF93DF93C1E8FB
:10205000D5E084E08C8B83E08D8B2FEF3FEF3F87C3
:102060002E873D872C879BE09B8B188E40E058EF96
:102070006FEF77E0488759876A877B872AE031E0EE
:10208000398B288B9AE0998F92E09A8F95E09B8FFD
:102090008C8F84E8AADF8F8B81E08A8B1E8ADF9188
:1020A000CF91089585FD02C08F7303C081958F7114
:1020B0008195E4EEF1E0949189173CF4E5EEF1E0CE
:1020C00021E0949189173CF001C020E098174CF46E
:1020D0008FEF820F08952F5F3196203191F780E0C6
:1020E0000895822F0895CF93DF93E1E8F5E0868588
:1020F00080936201878580936301E4E6F1E0A1E8C3
:10210000B5E08D918193EC3631E0F307D1F7E1E84A
:10211000F5E084858093600185858093610148E4C2
:1021200051E0DA018C912289B0E22B9F90011124B9
:1021300020768F79822BDA018C93CFE6D1E08881EB
:1021400095899F70807F892B88832EE631E0D901A5
:102150008C919689990F990F990F9870877F892B89
:102160008C932881938DB0E19B9FC0011124922F05
:102170009F70892B8883DA018C9193899F71807E6F
:10218000892B8C9387898EDFE5E4F1E09081907F45
:102190008F70892B8083DF91CF910895CF93DF9348
:1021A0008E3441F0893561F4FB01808180939D0577
:1021B00080E00BC1FB0180818093950580E005C123
:1021C0009091A0059F3009F4DCC08B3009F4C9C0A0
:1021D00080F4EB01823009F484C020F4882309F4F0
:1021E00046C0D1C0833009F48CC0843009F45AC091
:1021F000CAC0833579F128F48F3451F08035E9F085
:10220000C2C0873509F456C0803F09F48BC0BBC0FB
:10221000FB018081E1E8F5E0858B938D981710F440
:1022200090939605EFE6F1E08081909196059F707E
:10223000807F892B808380E0C8C0FB0190818181F1
:10224000E1E8F5E0968787879093620180936301C8
:1022500080E0BBC0FB0190818181E1E8F5E09487DB
:102260008587909360018093610180E0AEC080918A
:10227000A50581118AC0888140E058EF6FEF77E0B3
:10228000082E04C076956795579547950A94D2F71E
:1022900040FF7DC0983009F480C088E06DDA883056
:1022A000E1F786C08091A505811173C088818111F5
:1022B00072C08BC0FB019081E1E8F5E0938F8589C6
:1022C000981710F490939605EFE6F1E08081282F9F
:1022D0002F7030E1939FC0011124822B808380E016
:1022E00074C08881C1E8D5E08F8B7FDE8F8BDADE0A
:1022F000E5E4F1E09081907F8F70892B808380E00E
:1023000064C0888180939305E8E4F1E0208130E2A5
:10231000839FC00111248076922F9F79892B80831F
:1023200080E053C0FB01B081A1815281438134819F
:10233000258196818781E1E8F5E0B083A18352830E
:1023400043833483258396838783E4E6F1E0A1E821
:10235000B5E08D918193EC3631E0F307D1F780E061
:1023600034C0FB01808180939705EEE6F1E0908117
:10237000880F880F880F8870977F892B808380E073
:1023800024C081E822C084EF20C086E81EC088EE09
:102390001CC086E81AC088EE18C080939405E8E453
:1023A000F1E09081907E8F71892B808380E00DC059
:1023B000888180939405E8E4F1E09081907E8F71AC
:1023C000892B808386E1D8D980E0DF91CF91089571
:1023D00004C0615071098109910961157105810578
:1023E0009105B9F70895CF92DF92EF92FF920F9384
:1023F0001F93CF93DF93E0916904F0916A043097C3
:1024000071F4CCE4D1E088818F77888363E070E059
:1024100080E090E0DDDF88818068888349C000919A
:10242000470110917B0111230CF442C0E080F18040
:1024300082E0810FEBE8F0E0E81BF109E701CE0F45
:10244000DF1FC12ED12CA6014F5F5F4F60E871E006
:10245000CE010E94921DFE011293D7011896FC93A3
:10246000EE931797EC0DFD1D028360916904709146
:102470006A048AE795E02CD98BE892D890936A0495
:1024800080936904892B21F481E0809379050DC044
:10249000CCE4D1E088818F77888363E070E080E0CE
:1024A00090E096DF88818068888380E480934F0184
:1024B000DF91CF911F910F91FF90EF90DF90CF9020
:1024C0000895CF93DF93AC01FC01C081D181AF812E
:1024D000B8858C918093A105E82FF0E03196EA0F42
:1024E000FB1F808131813D3320F4311103C031E085
:1024F00001C03CE382958695869583702FEF829F7D
:10250000C0011124389FB001399F700D11249B0127
:10251000A3E8BDE20E94061D969587959295829547
:102520008F7089279F7089278F3F910511F008F0E0
:102530008FEF80835A834983CE01CAD6DF91CF9132
:1025400008959091A505911116C0883029F414D9E9
:102550001092790588E008958091690490916A0449
:10256000892B21F086E108D986E0089581E08093E7
:10257000790586E0089586E8089504C061507109E0
:10258000810991096115710581059105B9F70895D2
:102590001092A50580917304833069F028F4882394
:1025A00091F0813031F00DC0853039F0873039F04D
:1025B00008C087E809C081EE07C089EE05C085E83C
:1025C00003C085E801C080E060917F0570918005BF
:1025D0007CC608951F93CF93DF931F92CDB7DEB7CC
:1025E000182F662381F0ECE6F1E0208190919D05A3
:1025F00030E1939FC0011124922F9F70892B80831B
:102600001230E0F408C0ECE6F1E080818F70808346
:102610001230A0F40DC0ECE6F1E0808190919505B8
:10262000990F9E70817F892B808310926F011AC051
:10263000ECE6F1E080818E60808314C0E1E8F5E093
:10264000838D20E1829FC00111249589892B80937D
:102650006F01ACE6B1E08C919489990F9E70817FF7
:10266000892B8C9389E188D88931E1F71130A1F465
:102670008091A105833140F061E073E080E090E05B
:102680007CDF1092A1050DC06BEA70E080E090E065
:1026900074DF1092A10505C06CE070E080E090E06E
:1026A0006CDF8FB78983F8941981E9E3F1E08081C9
:1026B000826080830000000080818D7F8083609134
:1026C000A2057091A305FB01408150E041505109E2
:1026D00080E891E00E94921D81E08093A5051FBFD4
:1026E0000F90DF91CF911F910895FC019091A50566
:1026F000911116C0F0938005E0937F050780F08567
:10270000E02DF093A305E093A20580818150809392
:10271000A105EF2B39F0862F642F5CDF80E0089550
:1027200086E8089588EE08958091A5058130C1F46A
:10273000809142018295869587708093730482E030
:102740008093A5058091690490916A04892B31F4E6
:1027500089E012D881E080937905089586E10CC85C
:102760000895882329F1EDE4F1E080818C7F808356
:10277000808188608083AAE4B1E08C91807F83604F
:102780008C938081846080838081837009F054C041
:1027900080914D0183FF52C080914D0182FF50C056
:1027A00080914A018F70833009F04CC080E0089519
:1027B000EDE4F1E08081877F8083AAE4B1E08C9131
:1027C000807F87608C93808184608083613031F466
:1027D00080818C7F8160808385E817C0623041F4FE
:1027E000EDE4F1E080818C7F8260808385E80DC01C
:1027F000662311F0633041F4EDE4F1E080818C7FD9
:10280000808385E860E001C088EE20914D0123704F
:1028100030E070E026173707B9F490914D0193FD31
:1028200015C090914D0192FD13C090914A019F7087
:10283000933079F480E0089585E8089585E8089557
:1028400085E8089585E8089585E8089585E8089560
:1028500085E8089504C061507109810991096115E5
:10286000710581059105B9F70895811125C0FB0116
:102870008081803D2CF08FEC809374046FE013C056
:10288000873A2CF486EA8093740460E00CC080934D
:102890007404082E000C990B865A9F4F63E070E079
:1028A0000E94EB1C6F5FE5E5F1E08081807F6F7037
:1028B000682B608380E0089584EF089586EA809312
:1028C000740464E774E080E0D0DF61E080E00E949F
:1028D000640660E180E00E94640680E00895FF9253
:1028E0000F931F93CF93DF93F090A0058FE0F81222
:1028F00003C088E00E94BC0B10924E01C1E5D1E0FC
:1029000088818F7E888388818F60888367E070E00C
:1029100080E090E09FDF888185FD17C08881807FFF
:10292000888363E070E080E090E094DF888121E0BC
:1029300090E085FB002700F910E085FF20E0C22F22
:10294000D92F012B09F441C012C0C1E5D1E0888123
:102950008061888388818F60888367E070E080E091
:1029600090E078DF888185FD2EC0D1E001C0D0E005
:10297000C0E001E511E0F8018081807F9C2F9F700D
:10298000892B808363E070E080E090E063DFF801F2
:10299000808185FD04C0CC2331F0C15004C0CF5FDD
:1029A000C03149F7CFE0DD2339F0FBE4CF9FE001F0
:1029B0001124CA50D64F09C082E3C89FE0011124F8
:1029C000CC55D94F02C0CFEFDFEFEFE4F1E08081CB
:1029D00088E0808380E4808384E0808388E480933F
:1029E0004E01EFE0FE1203C08FE00E94BC0BCE014F
:1029F000DF91CF911F910F91FF9008950C94DB010F
:102A000008950C941302089580918400909185009C
:102A10000895EFE6F0E080818D7F8083B19A08957C
:102A2000B19AEFE6F0E08081826080830895EFE65E
:102A3000F0E0808181608083B09A089580E890E022
:102A400082C30895E9E8F0E02081922B9083E8E8C2
:102A5000F0E09081892B80830895CF93DF931F92BC
:102A6000CDB7DEB78FB78983F89489810F90DF9156
:102A7000CF9108958FBF0895CF93DF9380E890E0C2
:102A8000EBD26EEF74E180E890E0D4D3CFE6D0E0F3
:102A900088818160888361E075E180E890E0EAD315
:102AA00088818D7F8883E1E8F0E080818160808388
:102AB00088E0DF91CF9108951F920F920FB60F9289
:102AC00011240BB60F922F933F934F935F936F9305
:102AD0007F938F939F93AF93BF93EF93FF93E09177
:102AE0009304F0919404309709F01995FF91EF91B8
:102AF000BF91AF919F918F917F916F915F914F9116
:102B00003F912F910F900BBE0F900FBE0F901F9013
:102B100018951F920F920FB60F9211240BB60F92B9
:102B20002F933F934F935F936F937F938F939F93D5
:102B3000AF93BF93EF93FF93E0919104F0919204D0
:102B4000309709F01995FF91EF91BF91AF919F9147
:102B50008F917F916F915F914F913F912F910F9046
:102B60000BBE0F900FBE0F901F9018951F920F92E3
:102B70000FB60F9211240BB60F922F933F934F93E2
:102B80005F936F937F938F939F93AF93BF93EF93D5
:102B9000FF93E0918F04F0919004309709F019951C
:102BA000FF91EF91BF91AF919F918F917F916F9125
:102BB0005F914F913F912F910F900BBE0F900FBEE1
:102BC0000F901F9018951F920F920FB60F9211241D
:102BD0000BB60F922F933F934F935F936F937F9317
:102BE0008F939F93AF93BF93EF93FF93E0918D04E7
:102BF000F0918E04309709F01995FF91EF91BF91F4
:102C0000AF919F918F917F916F915F914F913F9184
:102C10002F910F900BBE0F900FBE0F901F90189525
:102C20001F920F920FB60F9211240BB60F922F9393
:102C30003F934F935F936F937F938F939F93AF9344
:102C4000BF93EF93FF93E0918B04F0918C04309746
:102C500009F01995FF91EF91BF91AF919F918F91DD
:102C60007F916F915F914F913F912F910F900BBE8C
:102C70000F900FBE0F901F9018951F920F920FB6D6
:102C80000F9211240BB60F922F933F934F935F93A4
:102C90006F937F938F939F93AF93BF93EF93FF9324
:102CA000E0918904F0918A04309709F01995FF9119
:102CB000EF91BF91AF919F918F917F916F915F91B4
:102CC0004F913F912F910F900BBE0F900FBE0F9021
:102CD0001F9018951F920F920FB60F9211240BB6EA
:102CE0000F922F933F934F935F936F937F938F93A5
:102CF0009F93AF93BF93EF93FF93E0918704F0917D
:102D00008804309709F01995FF91EF91BF91AF9129
:102D10009F918F917F916F915F914F913F912F91F3
:102D20000F900BBE0F900FBE0F901F9018951F9223
:102D30000F920FB60F9211240BB60F922F933F9361
:102D40004F935F936F937F938F939F93AF93BF93B3
:102D5000EF93FF93E0918504F0918604309709F09A
:102D60001995FF91EF91BF91AF919F918F917F91B5
:102D70006F915F914F913F912F910F900BBE0F90EC
:102D80000FBE0F901F9018951F920F920FB60F92C3
:102D900011240BB60F922F933F934F935F936F9332
:102DA0007F938F939F93AF93BF93EF93FF93E091A4
:102DB0008304F0918404309709F01995FF91EF9105
:102DC000BF91AF919F918F917F916F915F914F9143
:102DD0003F912F910F900BBE0F900FBE0F901F9041
:102DE00018951F920F920FB60F9211240BB60F92E7
:102DF0002F933F934F935F936F937F938F939F9303
:102E0000AF93BF93EF93FF93E0918104F09182041D
:102E1000309709F01995FF91EF91BF91AF919F9174
:102E20008F917F916F915F914F913F912F910F9073
:102E30000BBE0F900FBE0F901F9018951F920F9210
:102E40000FB60F9211240BB60F922F933F934F930F
:102E50005F936F937F938F939F93AF93BF93EF9302
:102E6000FF93E0917F04F0918004309709F0199569
:102E7000FF91EF91BF91AF919F918F917F916F9152
:102E80005F914F913F912F910F900BBE0F900FBE0E
:102E90000F901F9018951F920F920FB60F9211244A
:102EA0000BB60F922F933F934F935F936F937F9344
:102EB0008F939F93AF93BF93EF93FF93E0917D0424
:102EC000F0917E04309709F01995FF91EF91BF9131
:102ED000AF919F918F917F916F915F914F913F91B2
:102EE0002F910F900BBE0F900FBE0F901F90189553
:102EF0001F920F920FB60F9211240BB60F922F93C1
:102F00003F934F935F936F937F938F939F93AF9371
:102F1000BF93EF93FF93E0917B04F0917C04309793
:102F200009F01995FF91EF91BF91AF919F918F910A
:102F30007F916F915F914F913F912F910F900BBEB9
:102F40000F900FBE0F901F9018951F920F920FB603
:102F50000F9211240BB60F922F933F934F935F93D1
:102F60006F937F938F939F93AF93BF93EF93FF9351
:102F7000E0917904F0917A04309709F01995FF9166
:102F8000EF91BF91AF919F918F917F916F915F91E1
:102F90004F913F912F910F900BBE0F900FBE0F904E
:102FA0001F9018951F920F920FB60F9211240BB617
:102FB0000F922F933F934F935F936F937F938F93D2
:102FC0009F93AF93BF93EF93FF93E0917704F091BA
:102FD0007804309709F01995FF91EF91BF91AF9167
:102FE0009F918F917F916F915F914F913F912F9121
:102FF0000F900BBE0F900FBE0F901F9018951F9251
:103000000F920FB60F9211240BB60F922F933F938E
:103010004F935F936F937F938F939F93AF93BF93E0
:10302000EF93FF93E0917504F0917604309709F0E7
:103030001995FF91EF91BF91AF919F918F917F91E2
:103040006F915F914F913F912F910F900BBE0F9019
:103050000FBE0F901F9018951F93CF93DF931F9271
:10306000CDB7DEB72FB72983F8941981009709F4FB
:1030700064C08837910549F461E080E00E946406ED
:1030800060E180E00E94640658C0803C910529F40C
:1030900062E080E00E94640650C08C34910529F4FF
:1030A00064E080E00E94640648C08038910529F4FD
:1030B00068E080E00E94640640C08434910529F4F1
:1030C00060E280E00E94640638C0803B910529F4EC
:1030D00060E480E00E94640630C0883B910529F4DA
:1030E00060E880E00E94640628C0883C910529F4CD
:1030F00061E081E00E94640620C08039910529F4D6
:1031000068E081E00E94640618C0803A910529F4C5
:1031100060E181E00E94640610C0803221E09207E5
:1031200029F460E281E00E94640607C08334914084
:1031300021F460E481E00E9464061FBF0F90DF91DC
:10314000CF911F9108951F93CF93DF931F92CDB717
:10315000DEB72FB72983F8941981009709F464C06A
:103160008837910549F461E080E00E947C0660E1C7
:1031700080E00E947C0658C0803C910529F462E002
:1031800080E00E947C0650C08C34910529F464E0F4
:1031900080E00E947C0648C08038910529F468E0F0
:1031A00080E00E947C0640C08434910529F460E2EE
:1031B00080E00E947C0638C0803B910529F460E4E1
:1031C00080E00E947C0630C0883B910529F460E8CD
:1031D00080E00E947C0628C0883C910529F461E0CB
:1031E00081E00E947C0620C08039910529F468E0C6
:1031F00081E00E947C0618C0803A910529F460E1C4
:1032000081E00E947C0610C0803221E0920729F400
:1032100060E281E00E947C0607C08334914021F483
:1032200060E481E00E947C061FBF0F90DF91CF9188
:103230001F9108958038910529F470939404609348
:10324000930408958039910529F470938C04609358
:103250008B040895803A910529F470938404609357
:10326000830408958032914021F470937C0460932C
:103270007B0408958038910529F47093920460933B
:10328000910408958039910529F470938A0460931C
:1032900089040895803A910529F47093820460931B
:1032A000810408958032914021F470937A046093F0
:1032B000790408950E9400060E9448060E94AA0A06
:1032C0000E94070D0E94E103F9CF0C9413030895A7
:1032D000CF93DF93EC010E94390289819A810E9489
:1032E000D60ADF91CF9108955058BB27AA270ED058
:1032F000E5C0D6D030F0DBD020F031F49F3F11F4A0
:103300001EF4CBC00EF4E095E7FBC1C0E92FE7D077
:1033100080F3BA17620773078407950718F071F4F2
:103320009EF5FFC00EF4E0950B2EBA2FA02D0B01D9
:10333000B90190010C01CA01A0011124FF27591BFA
:1033400099F0593F50F4503E68F11A16F040A22F00
:10335000232F342F4427585FF3CF46953795279571
:10336000A795F0405395C9F77EF41F16BA0B620B70
:10337000730B840BBAF09150A1F0FF0FBB1F661FB7
:10338000771F881FC2F70EC0BA0F621F731F841FFA
:1033900048F4879577956795B795F7959E3F08F020
:1033A000B3CF9395880F08F09927EE0F97958795DF
:1033B000089504D06894B111B5C0089598D088F0EC
:1033C0009F5790F0B92F9927B751A0F0D1F0660F11
:1033D000771F881F991F1AF0BA95C9F712C0B1302C
:1033E00081F09FD0B1E008959CC0672F782F882787
:1033F000B85F39F0B93FCCF3869577956795B3956B
:10340000D9F73EF490958095709561957F4F8F4FD9
:103410009F4F0895E89409C097FB3EF490958095DE
:10342000709561957F4F8F4F9F4F9923A9F0F92F8A
:1034300096E9BB279395F695879577956795B79508
:10344000F111F8CFFAF4BB0F11F460FF1BC06F5FEE
:103450007F4F8F4F9F4F16C0882311F096E911C000
:10346000772321F09EE8872F762F05C0662371F021
:1034700096E8862F70E060E02AF09A95660F771F35
:10348000881FDAF7880F9695879597F9089597F929
:103490009F6780E870E060E008959FEF80EC0895FA
:1034A00000240A9416161706180609060895002423
:1034B0000A9412161306140605060895092E03949D
:1034C000000C11F4882352F0BB0F40F4BF2B11F411
:1034D00060FF04C06F5F7F4F8F4F9F4F089557FD70
:1034E0009058440F551F59F05F3F71F04795880F72
:1034F00097FB991F61F09F3F79F087950895121609
:1035000013061406551FF2CF4695F1DF08C01616B4
:1035100017061806991FF1CF869571056105089465
:103520000895E894BB2766277727CB0197F908957C
:103530000BD0C4CFB5DF28F0BADF18F0952309F01F
:10354000A6CFABCF1124EECFCADFA0F3959FD1F366
:10355000950F50E0551F629FF001729FBB27F00D41
:10356000B11D639FAA27F00DB11DAA1F649F662796
:10357000B00DA11D661F829F2227B00DA11D621FE5
:10358000739FB00DA11D621F839FA00D611D221F9F
:10359000749F3327A00D611D231F849F600D211D83
:1035A000822F762F6A2F11249F5750408AF0E1F026
:1035B00088234AF0EE0FFF1FBB1F661F771F881F6F
:1035C00091505040A9F79E3F510570F060CFAACFAF
:1035D0005F3FECF3983EDCF3869577956795B7955A
:1035E000F795E7959F5FC1F7FE2B880F911D969584
:1035F000879597F90895FA01EE0FFF1F3096210580
:10360000310599F16115710561F48038BFE39B07BD
:1036100049F168949038810561F08038BFEF9B07CD
:1036200041F0992342F5FF3FE1053105210511F1F4
:10363000E8940894E795D901AA2329F4AB2FBE2F6B
:10364000F85FD0F310C0FF5F70F4A695E0F7F7398C
:1036500050F019F0FF3A38F49F779F930CD00F90F9
:1036600007FC905808953EF018CF60E070E080E8C5
:103670009FE308954FE79F775F934F933F932F9377
:103680009ED02F913F914F915F9152DF05C019F469
:103690000EF0FDCE46CF01CF2ADFC8F39638C0F733
:1036A00007F80F92E8942BE33AEA48EB5FE74EDF26
:1036B0000F920F920F924DB75EB70F92C0D0E2E615
:1036C000F1E016D04F915F91EF91FF91E595EE1FDC
:1036D000FF1F49F0FE57E0684427EE0F441FFA959C
:1036E000E1F74195550B32D00F9007FE26C00895A3
:1036F000DF93CF931F930F93FF92EF92DF927B01A3
:103700008C01689405C0DA2EEF011EDFFE01E894FB
:10371000A5912591359145915591AEF3EF01F6DDD7
:10372000FE019701A801DA9479F7DF90EF90FF90FE
:103730000F911F91CF91DF9108959B01AC0160E043
:1037400070E080E89FE3AEC0A2CE14C1D0DEE8F303
:103750009923D9F3940F511DBBF39150504094F02D
:1037600059F0882332F0660F771F881F9150504020
:10377000C1F79E3F510544F7880F911D9695879597
:1037800097F908955F3FACF0983E9CF0BB27869573
:1037900077956795B79508F4B1609395C1F7BB0F1E
:1037A00058F711F460FFE8CF6F5F7F4F8F4F9F4F47
:1037B000E3CFB8CE0EF0DEC070CE689468CE97DE50
:1037C000C8F39923D1F3C6F3DF93CF931F930F93DD
:1037D000FF92C92FDD2788232AF02197660F771FD4
:1037E000881FDAF720E030E040E85FEB9FE388399C
:1037F00020F0803E30F021968F7777DDEAE8F1E027
:1038000003C073DDE7EBF1E073DF8B01BE01EC0178
:10381000FB2E6F5771097595771F880B990BFCDD8F
:1038200028E132E741E35FE38FDEAF2D9801AE017F
:10383000FF900F911F91CF91DF9168DD3FCEFA018C
:10384000DC01AA0FBB1F9B01AC01BF5728F4222744
:103850003327442750781FC0B75188F4AB2F00247A
:10386000469537952795011CA395D2F3002069F062
:10387000220F331F441FB395DAF30DD035CD6130DD
:103880007105A0E88A07B94630F49B01AC016627B0
:10389000772788279078309621F0208331834283E0
:1038A000538308950CD00ACE02DE40F0F9DD30F0EB
:1038B00021F45F3F19F0EBCD511134CEEECD0FDE88
:1038C00098F39923C9F35523B1F3951B550BBB27E7
:1038D000AA2762177307840738F09F5F5F4F220F94
:1038E000331F441FAA1FA9F333D00E2E3AF0E0E88D
:1038F00030D091505040E695001CCAF729D0FE2FD9
:1039000027D0660F771F881FBB1F2617370748076A
:10391000AB07B0E809F0BB0B802DBF01FF27935820
:103920005F4F2AF09E3F510568F0B1CDFBCD5F3F60
:10393000ECF3983EDCF3869577956795B795F79508
:103940009F5FC9F7880F911D9695879597F9089500
:10395000E1E0660F771F881FBB1F6217730784079C
:10396000BA0720F0621B730B840BBA0BEE1F88F7AB
:10397000E09508959F3F31F0915020F48795779519
:103980006795B795880F911D9695879597F9089536
:10399000DB018F939F9349D0BF91AF91A29F800D80
:1039A000911DA39F900DB29F900D11240895AA1B05
:1039B000BB1B51E107C0AA1FBB1FA617B70710F01A
:1039C000A61BB70B881F991F5A95A9F7809590954C
:1039D000BC01CD01089597FB072E16F4009406D084
:1039E00077FD08D0E4DF07FC05D03EF49095819583
:1039F0009F4F0895709561957F4F0895EE0FFF1FBB
:103A0000881F8BBF0790F691E02D1994A29FB001FB
:103A1000B39FC001A39F700D811D1124911DB29F02
:103A2000700D811D1124911D0895F0DFA59F900D4B
:103A3000B49F900DA49F800D911D11240895B7FF90
:103A4000F4CFF3DF821B930B08950024A7FD0094AD
:103A50002A0F301D401D501D601D701D801D901DC2
:103A600008950024A7FD00942A173005400550054D
:103A7000600570058005900508958F929F92AF9222
:103A8000BF92CF92DF92EF92FF92CF93DF93EC0140
:103A9000688179818A819B81611571058105910514
:103AA00021F464E279ED8BE597E02DE133EF41E01D
:103AB00050E041D049015A019B01AC01A7EAB1E4B1
:103AC000B4DF6B017C01ACEEB4EFA5019401B9DF6A
:103AD000DC01CB018C0D9D1DAE1DBF1DB7FF03C0CA
:103AE0000197A109B04888839983AA83BB839F77F4
:103AF000DF91CF91FF90EF90DF90CF90BF90AF908C
:103B00009F908F900895B9CF80E092E0B6CFA0E06B
:103B1000B0E08093000290930102A0930202B09360
:103B200003020895FB01DC0102C001900D92415097
:103B30005040D8F70895052E97FB16F400940FD047
:103B400057FD05D014D007FC02D046F408C05095AC
:103B50004095309521953F4F4F4F5F4F0895909579
:103B60008095709561957F4F8F4F9F4F0895A1E28B
:103B70001A2EAA1BBB1BFD010DC0AA1FBB1FEE1FE7
:103B8000FF1FA217B307E407F50720F0A21BB30B32
:103B9000E40BF50B661F771F881F991F1A9469F7AE
:103BA00060957095809590959B01AC01BD01CF010A
:063BB0000895F894FFCF18
:043BB600010000000A
:00000001FF
